:02000000F52BDE
:1003F0008312A10133080319022A31080319022AC2
:10040000A101A10AAD18062A0130072A00302106F1
:10041000A00005082006FE3920068500080083128A
:10042000A2002208A00004300310A00DFF3E031D0F
:10043000142A05080F39200485001A30A100F8306D
:10044000A000A00B212AA10B212A00000800831282
:10045000A10021082F060319080083169C182D2AD5
:100460009B018312210883169A003F308312A0005B
:10047000200883169C05831203108B1B03148B1317
:1004800083161C1555309D00AA309D009C141C112C
:10049000831203188B172108A0002008AF00080062
:1004A0008312051183160511831205080139A00076
:1004B0000130A00605082006FE39200685004130DF
:1004C000A100EE30A000A00B632AA10B632A00005C
:1004D000831205080139A0000130A0060508200696
:1004E000FE39200685000230A2000430A100BA3097
:1004F000A000A00B792AA10B792AA20B792A00006F
:100500008316051502308312A2004530A100A930E0
:10051000A000A00B892AA10B892AA20B892A902A64
:10052000080083168101951415159516073083125E
:1005300099002E3083168500831205158515051048
:100540004130A400EE30A300A30BA42AA40BA42ADC
:1005500000008312851CB02A831695120E30850088
:1005600083169B013F308312A300230883169C054A
:100570001C1483128518BE2A0130BF2A0330A6003E
:100580000030A70083161A0883122605AF00A300C7
:100590002308B30033080F22023083169B003F303C
:1005A0008312A300230883169C051C141A08013922
:1005B0008312A3002308B100502283169615961DBE
:1005C000E42A83161615E62A831616118B158B134B
:1005D0008312A8010A30280203180C2B05104130A1
:1005E000A400EE30A300A30BF32AA40BF32A00000F
:1005F000831205144130A400EE30A300A30BFE2AA1
:10060000A40BFE2A000001308312A3002308A807D0
:100610000A302802031CEE2A0230A5004530A4004F
:10062000A930A300A30B122BA40B122BA50B122B8A
:10063000192B08009122831285194E2B0130A90035
:100640002908B10683169C18222B02309B008312C6
:10065000310883169A003F308312A90029088316B7
:100660009C05831203108B1B03148B1383161C151C
:1006700055309D00AA309D009C141C118312031854
:100680008B17831285194E2B8230AA00DD30A9000A
:10069000A90B482BAA0B482B4D2B412BF821E12B02
:1006A0008519572B0130A9002908AD075A2BAD0138
:1006B00063000B10103083122D020318612B0519F3
:1006C000EA2BB201B20AAD01B0010310051D0314FB
:1006D000003003180130AE0005080139A9000130CF
:1006E000A90605082906FE39290685004130AA0019
:1006F000EE30A900A90B7A2BAA0B7A2B00008312EB
:1007000005080139A9000130A90605082906FE39A6
:10071000290685004130AA00EE30A900A90B8E2BD6
:10072000AA0B8E2B0000EA2B831230080319851DBB
:100730009E2B051D9E2BB001B00AEA2B3008031931
:10074000BA2B851DA52B0519BA2BAE01B0010130BE
:10075000A9002908B3078518AF2B0130B02B03304F
:10076000AB000030AC002B08A9002908B305330802
:100770000F22EA2B8519051DD22B0130A90029086B
:10078000AD071F302D02031CEA2BB001B00A2E0862
:10079000031DCB2B50228312330827228312AD0175
:1007A000B201EA2BAD01EA2B8512051205080139C9
:1007B000A9000130A90605082906FE392906850089
:1007C000EA2B83123208003A0319502B013A03191D
:1007D000942BD42B41308312AA00EE30A900A90B30
:1007E000EF2BAA0BEF2B00004E2B8312AD01AE01B5
:0E07F000AF01B001B101B201B30183011A2BB8
:02400E009431EB
:00000001FF
