:02000000F52BDE
:10040C008312A10133080319102A31080319102A89
:10041C00A101A10AAD18142A0130152A00302106B9
:10042C00A00005082006FE3920068500080083126E
:10043C00A2002208A00004300310A00DFF3E031DF3
:10044C00222A05080F39200485001A30A100F83043
:10045C00A000A00B2F2AA10B2F2A0000080083124A
:10046C00A10021082F060319080083169C183B2AAB
:10047C009B018312210883169A003F308312A0003F
:10048C00200883169C05831203108B1B03148B13FB
:10049C0083161C1555309D00AA309D009C141C1110
:1004AC00831203188B172108A0002008AF00080046
:1004BC008312051183160511831205080139A0005A
:1004CC000130A00605082006FE39200685004130C3
:1004DC00A100EE30A000A00B712AA10B712A000024
:1004EC00831205080139A0000130A006050820067A
:1004FC00FE39200685000230A2000430A100BA307B
:10050C00A000A00B872AA10B872AA20B872A000028
:10051C008316051502308312A2004530A100A930C4
:10052C00A000A00B972AA10B972AA20B972A9E2A10
:10053C000800831681019514151595160730831242
:10054C0099002E308316850083120515851505102C
:10055C004130A400EE30A300A30BB22AA40BB22AA4
:10056C0000008312851CBE2A831695120E3085005E
:10057C0083169B013F308312A300230883169C052E
:10058C001C1483128518CC2A0130CD2A0330A60006
:10059C000030A70083161A0883122605AF00A300AB
:1005AC002308B30033081D22023083169B003F3012
:1005BC008312A300230883169C051C141A08013906
:1005CC008312A3002308B1005E228312A8010A3013
:1005DC00280203180F2B05104130A400EE30A300A5
:1005EC00A30BF62AA40BF62A000083120514413043
:1005FC00A400EE30A300A30B012BA40B012B0000D5
:10060C0001308312A3002308A8070A302802031C18
:10061C00F12A0230A5004530A400A930A300A30B99
:10062C00152BA40B152BA50B152B1C2B08009F228F
:10063C0083128519512B0130A9002908B1068316A4
:10064C009C18252B02309B008312310883169A00CC
:10065C003F308312A900290883169C0583120310CE
:10066C008B1B03148B1383161C1555309D00AA305D
:10067C009D009C141C11831203188B17831285196F
:10068C00512B8230AA00DD30A900A90B4B2BAA0BF1
:10069C004B2B502B442B0622E12B85195A2B013066
:1006AC00A9002908AD075B2BAD0110302D020318F2
:1006BC00612B0519EA2BB201B20AAD01B00103108E
:1006CC00051D0314003003180130AE000508013974
:1006DC00A9000130A90605082906FE39290685005E
:1006EC004130AA00EE30A900A90B7A2BAA0B7A2B69
:1006FC000000831205080139A9000130A90605087C
:10070C002906FE39290685004130AA00EE30A900E1
:10071C00A90B8E2BAA0B8E2B0000EA2B8312300810
:10072C000319851D9E2B051D9E2BB001B00AEA2BCB
:10073C0030080319BA2B851DA52B0519BA2BAE0150
:10074C00B0010130A9002908B3078518AF2B01307F
:10075C00B02B0330AB000030AC002B08A9002908EB
:10076C00B30533081D22EA2B8519051DD22B013048
:10077C00A9002908AD071F302D02031CEA2BB0017C
:10078C00B00A2E08031DCB2B5E22831233083522B0
:10079C008312AD01B201EA2BAD01EA2B85120512D1
:1007AC0005080139A9000130A90605082906FE39FA
:1007BC0029068500EA2B83123208003A0319532BC1
:1007CC00013A0319942BD42B41308312AA00EE303A
:1007DC00A900A90BEF2BAA0BEF2B0000512B8312B6
:1007EC00AD01AE01AF01B001B101B201B3018301A2
:0207FC001D2BB3
:02400E009431EB
:00000001FF
